:03000000020C06E9
:0C0C0600787FE4F6D8FD758128020C4DC3
:100D940057656C636F6D6521212100507265737313
:100DA40000627574746F6E00746F00766F74650002
:100DB4005031005032005033005034005468616E9A
:100DC4006B00596F75212100526573756C74730043
:100DD400417265004F757400487572726179212102
:100DE400210077696E7300636C61736800626574D7
:100DF4007765656E21212100696E697400626567FB
:030E0400696E0014
:080F3F0002120000020800008C
:100EF7007F327E00120F077F14120F2D7F327E0084
:100F0700E4FDFCD3ED9FEE6480F8EC648098501507
:100F1700E4FBFA0BBB00010ABA03F8BBE9F50DBD08
:050F270000010C80DE5A
:010F2C0022A2
:100F2D008FA0D2B6C2B0C2B17F017E00120F07C230
:020F3D00B622DA
:060EB9007BFF7A0D79B405
:060EBF008B248A25892620
:100EC500E4F527F528AB24AA25A9268528828527B8
:100ED50083120C92601BF5A0C2B1D2B0D2B67F01CD
:100EE5007E00120F07C2B60528E52870D8052780B1
:010EF500D428
:010EF60022D9
:040E0700AB07AA0685
:100E0B007522007523027C007D0AAF03AE02120C23
:100E1B00BFE52325E0241CF8A60408A6057C007D6D
:100E2B000AAF03AE02120CBFAA06AB07E5231523CC
:100E3B0070021522E523B4FFCDE522B4FFC8900064
:100E4B0000AF82EF25E0241CF808E62430F9F5A06A
:100E5B00C2B1D2B0D2B67F017E00120F07C2B6A3C9
:080E6B00E5826403458370D9A0
:010E7300225C
:100E74002091092092062093033094F430910B20A2
:100E840091FD0515E5157002051430920B2092FDB5
:100E94000517E5177002051630930B2093FD05190D
:100EA400E5197002051830940B2094FD051BE51B11
:050EB4007002051A2286
:100B30007F38120F007F0E120F007F01120F007F0F
:100B400081120F007BFF7A0D7994120EBF7F647EB5
:100B500000120F077F01120F007F80120F007BFF32
:100B60007A0D799F120EBF120EF77BFF7A0D79A5D1
:100B7000120EBF120F03120F077FC0120F007BFF70
:100B80007A0D79AC120EBF120EF77BFF7A0D79AF9A
:100B9000120EBF7F647E00120F077F01120F007FCD
:100BA00080120F00120EB9120F037F84120F007B08
:100BB000FF7A0D79B7120EBF120F037F88120F0054
:100BC0007BFF7A0D79BA120EBF120F037F8C120FC2
:100BD000007BFF7A0D79BD120EBF120F03120E7447
:100BE0007F01120F007F85120F007BFF7A0D79C005
:100BF000120EBF120EF77BFF7A0D79C6120EBF7F61
:060C0000647E00020F07F4
:10080000E4F508F5097F01120F007F80120F007BCD
:10081000FF7A0D79CC120EBF120EF77BFF7A0D799D
:10082000D4120EBF120EF77BFF7A0D79D8120EBFCD
:10083000120F037F01120F007F80120F00120EB9FA
:10084000120F037F84120F007BFF7A0D79B7120E0F
:10085000BF120F037F88120F007BFF7A0D79BA1247
:100860000EBF120F037F8C120F007BFF7A0D79BD34
:10087000120EBF120F037FC0120F2D7F647E001275
:100880000F07AF15AE14120E07120F037FC4120F1D
:1008900000AF17AE16120E07120F037FC8120F001B
:1008A000AF19AE18120E07120F037FCC120F00AF54
:1008B0001BAE1A120E077F2C7E01120F0785140A39
:1008C00085150B85160C85170D85180E85190F8556
:1008D0001A10851B11E4FF1EEF25E0240AF8E6FC40
:1008E00008E6FDC39513E5126480F8EC6480984037
:1008F000048C128D130FBF00010EEF64044E70D8EC
:10090000E51365157004E51265147057E513651756
:100910007004E5126516604BE51365197004E51265
:100920006518603FE513651B7004E512651A6033B6
:100930007508007509017F01120F007F82120F00F8
:100940007BFF7A0D79DC120EBF120F037FC4120FEA
:1009500000120EB9120EF77BFF7A0D79E6120EBF68
:10096000120F03E51365177004E5126516705DE557
:100970001365157004E51265146051E5136519706F
:1009800004E51265186045E513651B7004E5126502
:100990001A60397508007509017F01120F007F8206
:1009A000120F007BFF7A0D79DC120EBF120F037F4E
:1009B000C4120F007BFF7A0D79B7120EBF120EF72B
:1009C0007BFF7A0D79E6120EBF120F03E51365194E
:1009D0007004E5126518705DE51365177004E51283
:1009E00065166051E51365157004E51265146045E0
:1009F000E513651B7004E512651A6039750800750A
:100A000009017F01120F007F82120F007BFF7A0D18
:100A100079DC120EBF120F037FC4120F007BFF7A26
:100A20000D79BA120EBF120EF77BFF7A0D79E6121E
:100A30000EBF120F03E513651B7004E512651A70F3
:100A40005DE51365177004E51265166051E51365E1
:100A5000197004E51265186045E51365157004E525
:100A600012651460397508007509017F01120F00C5
:100A70007F82120F007BFF7A0D79DC120EBF120FFE
:100A8000037FC4120F007BFF7A0D79BD120EBF12D7
:100A90000EF77BFF7A0D79E6120EBF120F03E50900
:100AA00045086003020B2F7F01120F007F82120F97
:100AB000007BFF7A0D79EB120EBF120EF77BFF7AE7
:100AC0000D79F1120EBF120F03E513B51710E512E1
:100AD000B5160B7FC1120F2D120EB9120F03E513BD
:100AE000B51716E512B516117FC5120F2D7BFF7ACB
:100AF0000D79B7120EBF120F03E513B51916E512E3
:100B0000B518117FC9120F2D7BFF7A0D79BA120E1D
:100B1000BF120F03E513B51B16E512B51A117FCDF1
:0F0B2000120F2D7BFF7A0D79BD120EBF120F033E
:010B2F0022A3
:100D1400D295D290E4F51AF51BF518F519F516F5E8
:100D240017F514F515C294C293C292C2917F38127A
:100D34000F007F0E120F007F01120F007F80120F31
:100D4400007BFF7A0D799F120EBF120EF77BFF7A9C
:100D54000D79FC120EBF120F03120F077FC0120F82
:100D6400007BFF7A0D79AC120EBF120EF77BFF7A6F
:100D74000E7901120EBF7F647E00120F07309003BC
:100D84002095FA309505120B3080F212080080FB92
:100C1200020D14E493A3F8E493A34003F68001F2D7
:100C220008DFF48029E493A3F85407240CC8C333E3
:100C3200C4540F4420C8834004F456800146F6DFB2
:100C4200E4800B0102040810204080900F3FE47EF4
:100C5200019360BCA3FF543F30E509541FFEE493A7
:100C6200A360010ECF54C025E060A840B8E493A36E
:100C7200FAE493A3F8E493A3C8C582C8CAC583CA99
:100C8200F0A3C8C582C8CAC583CADFE9DEE780BE51
:010F470000A9
:100C9200BB010CE58229F582E5833AF583E0225017
:100CA20006E92582F8E622BBFE06E92582F8E22261
:0D0CB200E58229F582E5833AF583E493227B
:100CBF00BC000BBE0029EF8DF084FFADF022E4CC19
:100CCF00F875F008EF2FFFEE33FEEC33FCEE9DECE2
:100CDF00984005FCEE9DFE0FD5F0E9E4CEFD22ED28
:100CEF00F8F5F0EE8420D21CFEADF075F008EF2F72
:100CFF00FFED33FD4007985006D5F0F222C398FD63
:050D0F000FD5F0EA22FF
:00000001FF
